:060000000A128A110E280D
:10000800FE00030E83120313A6000A08A7000A12B3
:100018008A1121290A128A11112883135A30FD00E6
:100028000330FE001F30FF00463084000A128A1198
:1000380037230A128A11DA01DB01DC01DD01DE0156
:10004800DF01E001E101E201FB01FC01FD018301A7
:100058000A128A11AA280A3083120313A800003052
:10006800A9003208AB003108AA000A128A116422DA
:100078000A128A11831203132908BE002808BD003A
:100088003E08B8003D08B7000A30A8000030A900B3
:100098003208AB003108AA000A128A1192210A120A
:1000A8008A11831203132908B2002808B1000A3004
:1000B800A8000030A9003208AB003108AA000A12D3
:1000C8008A1164220A128A11831203132908BE00B6
:1000D8002808BD003E08BA003D08B9000A30A8004B
:1000E8000030A9003208AB003108AA000A128A11B0
:1000F80092210A128A11831203132908B2002808D0
:10010800B1003208BC003108BB003808C400370809
:10011800C3003A08C2003908C1003C08C0003B08C7
:10012800BF00313084003F0883138000840A4008F0
:100138008000840A41088000840A42088000840AFA
:1001480043088000840A4408800008000A128A11C3
:10015800BF220A128A110A128A1146230A128A1128
:10016800831203135E08B2005D08B1000A128A11F7
:100178002F200A128A11A030840083120313310839
:1001880083138000840A32088000840A33088000C0
:10019800840A34088000840A35088000840A3608F6
:1001A8008000831603132408503E8400000883123D
:1001B8000313C5004508E200831603132208503EC6
:1001C8008400000883120313C5004508FB0083164A
:1001D80003132008463E8400000883120313C50059
:1001E8004508FC009F18F928FA28B4281F0CC500F8
:1001F800450C0F39003A031D0229032908291F0855
:10020800C33904389F0013291F0CC500450C0F394A
:10021800013A031D102911291329C3309F050C30F9
:1002280083120313C500C50B17290000831203139B
:100238009F14B4280A128A110E280C1F2429252974
:100248005E291F0CA400240C0F39003A031D2D2928
:100258002E2931291E0887005D291F0CA400240CB3
:100268000F39013A031D39293A295D293330F6003F
:100278000030F7001E08A400A5012408F000250896
:10028800F1006430F2000030F3000A128A11FA22F9
:100298000A128A117108F9007008F8000A128A1106
:1002A800FB210A128A11770883120313DE007608ED
:1002B800DD000C130B1D612962298B2989017D083A
:1002C800031D672968296F297C0888000130890087
:1002D800FD01FD0A88297D03031D732974297D29E1
:1002E8007B088800023089000230A4002408FD0041
:1002F800882902307D06031D8229832988296208FE
:10030800880004308900FD010B11D93081002708CD
:100318008A00260E8300FE0E7E0E09008312031348
:10032800AE01A91F98299929A029A809A909A80AED
:100338000319A90AAE01AE0AAB1FA329A429AD2946
:10034800AA09AB09AA0A0319AB0A0130AC002C08A8
:10035800AE06AF01B001280829040319B429B5294C
:10036800EC29AD01AD0AC32901300310A80DA90D70
:10037800FF3E031DB9290130AC002C08AD07A91FA9
:10038800C629C729B82901300310AF0DB00DFF3EAB
:10039800031DC82929082B02031DD42928082A026D
:1003A800031CD729D829DF292808AA022908031CF1
:1003B800AB03AB022F1401300310A90CA80CFF3EAD
:1003C800031DE0290130AD02031DEB29EC29C729E3
:1003D8002E080319F029F129F629AF09B009AF0A47
:1003E8000319B00A3008A9002F08A80008008312D2
:1003F8000313A101F71F012A022A092AF609F7099E
:10040800F60A0319F70AA101A10AF91F0C2A0D2AF5
:10041800162AF809F909F80A0319F90A0130FA0045
:100428007A08A106A201A3017608770403191D2AF8
:100438001E2A552AA001A00A2C2A01300310F60D05
:10044800F70DFF3E031D222A0130FA007A08A007A3
:10045800F71F2F2A302A212A01300310A20DA30DDD
:10046800FF3E031D312A77087902031D3D2A7608CD
:100478007802031C402A412A482A7608F80277089D
:10048800031CF903F902221401300310F70CF60CCF
:10049800FF3E031D492A0130A002031D542A552A94
:1004A800302A21080319592A5A2A5F2AA209A309BE
:1004B800A20A0319A30A2308F7002208F600080075
:1004C80083120313AE01AB1F6A2A6B2A722AAA0988
:1004D800AB09AA0A0319AB0AAE01AE0AA91F752A0D
:1004E800762A7B2AA809A909A80A0319A90A2808AB
:1004F80029040319802A812AB02AAD01AD0A8F2A5E
:1005080001300310A80DA90DFF3E031D852A0130F7
:10051800AC002C08AD07A91F922A932A842A29081F
:100528002B02031D992A28082A02031C9C2A9D2AAB
:10053800A32A2808AA022908031CAB03AB0201302E
:100548000310A90CA80CFF3E031DA42A0130AD021C
:10055800031DAF2AB02A932A2E080319B42AB52AF4
:10056800BA2AAA09AB09AA0A0319AB0A2B08A900D7
:100578002A08A80008000330831603178800890199
:1005880003308316031385008701880189018312CC
:10059800031385018701880189010C13831603134E
:1005A8000C170B178B178B160B110F088F39603828
:1005B8008F000F14831203131F083F3940389F0020
:1005C800831603131F129F12C330831203139F0550
:1005D800831603139F13831203131F140C30831203
:1005E8000313A800A80BF62A00000800F401F5017F
:1005F800701CFF2A002B062B7208F4070318F50A53
:100608007308F50701300310F20DF30DFF3E031DCB
:10061800072B01300310F10CF00CFF3E031D0E2BCD
:1006280070087104031D192B1A2BFC2A7508F10098
:100638007408F0000800BF348634DB34CF34E63465
:10064800ED34FD348734FF34EF343F3406345B3403
:100658004F3466346D347D3407347F346F347E080C
:100668008A007F0882000A128A1133230A128A112B
:100678008000840A04087D0603190034FF0A031960
:10068800FE0A372B8316031381128111011481147A
:0E06980001150B11D9308312031381000800E5
:08400000FF3FFF3FFF3FFF3FC0
:04400E00D420FF3F7C
:00000001FF
